:100000000C9461000C947E000C947E000C947E0095
:100010000C947E000C947E000C947E000C947E0068
:100020000C947E000C947E000C947E000C947E0058
:100030000C947E000C947E000C947E000C947E0048
:100040000C94A1000C947E000C947E000C947E0015
:100050000C947E000C947E000C947E000C947E0028
:100060000C947E000C947E00000000002400270009
:100070002A0000000000250028002B0000000000DE
:1000800023002600290004040404040404040202DA
:100090000202020203030303030301020408102007
:1000A0004080010204081020010204081020000012
:1000B0000007000201000003040600000000000029
:1000C000000011241FBECFEFD4E0DEBFCDBF11E092
:1000D000A0E0B1E0E8E7F3E002C005900D92A030A7
:1000E000B107D9F711E0A0E0B1E001C01D92A9303D
:1000F000B107E1F70E949A000C94BA010C94000039
:1001000087E061E00E946D0160E971E080E090E0CD
:100110000E94E90087E060E00E946D0168EC70E0F9
:1001200080E090E00E94E900089587E061E00E948D
:100130004D0108950E9413010E9495000E948000C5
:10014000FDCF1F920F920FB60F9211242F933F9362
:100150008F939F93AF93BF9380910401909105017A
:10016000A0910601B0910701309108010196A11DEF
:10017000B11D232F2D5F2D3720F02D570196A11D86
:10018000B11D209308018093040190930501A09371
:100190000601B09307018091000190910101A091A7
:1001A0000201B09103010196A11DB11D80930001D0
:1001B00090930101A0930201B0930301BF91AF910D
:1001C0009F918F913F912F910F900FBE0F901F9095
:1001D0001895EF92FF920F931F937B018C018FB7BD
:1001E000F8944091040150910501609106017091CD
:1001F00007018FBF2FB7F8948091040190910501FA
:10020000A0910601B09107012FBF841B950BA60B8F
:10021000B70BE816F9060A071B0760F71F910F9145
:10022000FF90EF900895789484B5826084BD84B582
:10023000816084BD85B5826085BD85B5816085BDE1
:10024000EEE6F0E0808181608083E1E8F0E080818B
:1002500082608083808181608083E0E8F0E080813B
:1002600081608083E1EBF0E0808184608083E0EB5B
:10027000F0E0808181608083EAE7F0E08081846043
:10028000808380818260808380818160808380819F
:10029000806880831092C1000895282F30E0C90142
:1002A00086569F4FFC0194912A573F4FF901849144
:1002B000882391F0E82FF0E0EE0FFF1FE859FF4F81
:1002C000A591B491662329F48C91909589238C9300
:1002D00008958C91892B8C930895482F50E0CA0182
:1002E00082559F4FFC012491CA0186569F4FFC0105
:1002F00094914A575F4FFA0134913323D1F122236D
:1003000031F1233021F4809180008F7705C02430B3
:1003100031F4809180008F7D8093800018C021305F
:1003200019F484B58F7704C0223021F484B58F7D11
:1003300084BD0DC0263021F48091B0008F7705C0B8
:10034000273029F48091B0008F7D8093B000E32F97
:10035000F0E0EE0FFF1FEE58FF4FA591B49166231A
:1003600029F48C91909589238C9308958C91892BF5
:080370008C930895F894FFCF6F
:00000001FF
